:100000000C9435000C945D000C945D000C945D0024
:100010000C945D000C945D000C9460030C945D00E6
:100020000C945D000C945D000C945D000C945D00DC
:100030000C945D000C945D000C945D000C945D00CC
:100040000C9452030C945D000C945D000C945D00C4
:100050000C945D000C945D000C945D000C945D00AC
:100060000C945D000C945D00D20511241FBECFEFEF
:10007000D8E0DEBFCDBF13E0A0E0B1E0EAE5F9E1F2
:1000800002C005900D92A231B107D9F713E0A2E1A9
:10009000B3E001C01D92A33DB107E1F710E0CAE64D
:1000A000D0E004C02297FE010E94A00CC836D10700
:1000B000C9F70E949A030C94AB0C0C94000096B103
:1000C0009C7381E09C3309F480E008958BB18F70BC
:1000D0008BB985E08A95F1F700000E945F000895D2
:1000E0002C9A2BB1982F907F2F70922B9BB92C9824
:1000F0002C9A9BB18295807F9F70892B8BB92C980D
:100100002C9A85E88A95F1F700008BB18F708BB936
:1001100008952B980E94700008952B9A0E947000F9
:1001200008958BB9409A409808951F93DF93CF9319
:1001300000D00F92CDB7DEB7182F289880E06B83E0
:100140007A8399830E9491009981892F0E9491005E
:10015000812F0E9491007A81872F0E9491006B81EC
:10016000862F0E949100289A1BB80F900F900F9035
:10017000CF91DF911F910895AF92BF92CF92DF92FE
:10018000EF92FF920F931F93DF93CF93CDB7DEB71C
:1001900028970FB6F894DEBF0FBECDBF613A0CEAC8
:1001A000700709EB800703E0900760F020E439E571
:1001B00043E757E079018A01E61AF70A080B190BA1
:1001C000C801B7016D837E838F83988719821A8255
:1001D0001B821C823A814B815C817E8120E08F8171
:1001E0009885B0E4AB2EA9E5BA2EF3E7CF2EE7E071
:1001F000DE2EEE24FF2400E010E00E94D705952FAC
:10020000B901842F28960FB6F894DEBF0FBECDBF7C
:10021000CF91DF911F910F91FF90EF90DF90CF90E2
:10022000BF90AF9008950E94BC000E949500089571
:10023000FC01828D883070F4808DDF01A80FB11D24
:1002400050966C935097808D8F5F8770808F828DD2
:100250008F5F828F0895FC01108E118E128E80E0C8
:1002600091E0948F838F80E111928A95E9F7089548
:10027000EF92FF920F931F93CF93DF93EC01082F20
:10028000BD2F982F292F3D2F80E090E040E150E0D6
:10029000EBB1BA01082E02C0660F771F0A94E2F78D
:1002A000762F70957E237BB975E07A95F1F7000083
:1002B00076B176957695EBB1E62BEBB9F901A0E036
:1002C000172F11706081660F612B61937695AF5F78
:1002D000A430B1F72C5F3F4F019684309105C1F6F1
:1002E000E02EFB2E00E010E0F70181917F018F717D
:1002F000803141F4EB8DFC8DE00FF11FCE01608168
:100300000E9418010F5F1F4F0031110569F7DF913F
:10031000CF911F910F91FF90EF900895FC01828D76
:10032000882379F0818DDF01A80FB11D50968C9143
:100330005097918D9F5F9770918F928D9150928F72
:10034000089580E00895CF92DF92EF92FF920F938D
:100350001F93DF93CF9300D0CDB7DEB76C01DC01E4
:10036000FC01709680E101900D928150E1F79601B9
:10037000205F3F4FC90160E270E040E150E00E9421
:10038000A40C00E010E090E0892F80689A830E941E
:1003900089007601E00EF11E20E09A81F70181913B
:1003A0007F0129839A830E948D0029812F5F9A8182
:1003B0002031A1F7905C005F1F4F903829F7F601BC
:1003C00081A18295880F880F807C90A1890F806819
:1003D0000E9489000F900F90CF91DF911F910F9194
:1003E000FF90EF90DF90CF900895CF93DF93EC01D3
:1003F0008CE00E94890081E00E9489008FE99FE0E3
:100400000197F1F700C0000019A218A2CE0160E226
:1004100070E040E250E00E94A40C8AA1882319F009
:100420008FE00E948900DF91CF910895CF93DF93F1
:10043000EC0119A218A282E00E9489008AA18823F7
:1004400019F08FE00E948900DF91CF910895FC019F
:1004500060A341A3842F8295880F880F807C860F2C
:1004600080680E94890008951F93CF93DF93EC0169
:10047000162F6A3001F16B3028F4683051F0693082
:1004800041F510C06C30A1F06C3048F06D3009F5CA
:100490001BC068A1662309F445C0615007C00E94D3
:1004A000160240C068A16131E8F56F5FCE010DC052
:1004B0000E94F50137C049A1423018F00E94A30103
:1004C00031C04F5F68A102C060E049A10E942702CD
:1004D00029C089A1823010F081E089A388A18031F0
:1004E00070F089A1882321F0CE010E94A30102C0EF
:1004F00081E089A3CE0160E049A10E942702E9A121
:10050000F0E088A194E0EE0FFF1F9A95E1F7E80F65
:10051000F11DEC0FFD1F1083812F0E948D0088A11B
:100520008F5F88A3DF91CF911F910895EF92FF9283
:100530000F931F93CF93DF93EC017A018B0177FF29
:100540000BC06DE20E94340210950095F094E09487
:10055000E11CF11C011D111D8AE0E816F1040105E2
:1005600011056CF0C801B7012AE030E040E050E02E
:100570000E942A0CCE01BA01A9010E949602C8016C
:10058000B7012AE030E040E050E00E942A0C605DB4
:10059000CE010E943402DF91CF911F910F91FF9005
:1005A000EF900895CF93DF93C82FD92F04C082E135
:1005B00093E00E94340269916623C9F7DF91CF91DD
:1005C0000895CF93DF93EC012B9A2C9A8BB1806F17
:1005D0008BB98FE39CE90197F1F700C000008BB164
:1005E0008F7080638BB92B982C988FE295E70197D9
:1005F000F1F700C000002C9A2C988FE097E2019749
:10060000F1F700C000002C9A2C988FE097E2019738
:10061000F1F700C000002C9A8BB18F7080628BB90B
:100620002C988FE097E20197F1F700C000002C9A18
:1006300088E20E94890086E00E948900CE010E9423
:10064000F5011AA2DF91CF910895CF92DF92EF9238
:10065000FF920F931F93CF93DF936C017A018B016D
:10066000C2E1D3E0CE010E94F501C6010E94D20290
:10067000CE016DE30E943402CE01B801A7010E94B1
:10068000960281E191E00E94D202C801B7010E9466
:100690001301DF91CF911F910F91FF90EF90DF90A9
:1006A000CF9008951F920F920FB60F9211248F933F
:1006B00080EC86BD8F910F900FBE0F901F90189504
:1006C0001F920F920FB60F9211240F900FBE0F9032
:1006D0001F901895CF93DF93EC0182E193E00E9485
:1006E000F50110924F0380914F0380934E03809148
:1006F0004E0380934D03CE010E94D2020AC0A895FA
:100700008091600080648093600085E393E00E94A4
:10071000380180914F03882391F310924F03809109
:100720004F0380934E0380914E0380934D03DF91DE
:10073000CF9108952F923F924F925F926F927F9246
:100740008F929F92AF92BF92CF92DF92EF92FF92E1
:100750000F931F93CF93DF9314BE15BE83E087B929
:100760008FEF8AB98FE384B988B91BB815B883B7FE
:10077000817F83BF83B7816083BF80916000886180
:100780008093600088EE8093600085E085BDC1E0C5
:10079000C0936E0080EC86BD82E193E00E94E1028E
:1007A000C09334038FE00E9489007894419A8FECC3
:1007B00097E00197F1F700C0000041984098289811
:1007C00084E191E040E452E46FE070E00E94250390
:1007D00050E4252E54E5352E59E8452E512C40E4A1
:1007E000A42E42E4B42E4FE0C42ED12CEE24FF24DC
:1007F00087018895A895809160008064809360004F
:1008000085E393E00E94380180914F03882389F3A8
:1008100085E393E00E948E01C82F80538A30F8F45C
:10082000C801B7012AE030E040E050E00E940B0C24
:10083000D0E0E0977E010027F7FC0095102FE60E30
:10084000F71E081F191F82E193E06DE00E94340239
:1008500082E193E0B801A7010E949602CACFC23498
:1008600009F4FBC0C33450F4CA3209F496C0C13451
:1008700009F4E2C0C33209F0BCCF25C0C33409F487
:1008800001C1C43409F0B5CFC801B7012AE030E096
:1008900040E050E00E942A0C79018A0182E193E055
:1008A0006DE00E943402E114F1040105110531F0FC
:1008B00082E193E0B801A7010E94960287E191E0EE
:1008C0000E94D20296CF98EFA91694E2B90691E061
:1008D000C90690E0D9062CF48AE191E00E946A03EF
:1008E00057C088E291E0B601A5010E9425038BE282
:1008F00091E00E94D202C2E9D1E002E513E06991E1
:100900007991899199916A0D7B1D8C1D9D1D0E9485
:10091000BC00F80161937193819391938F01F2E090
:10092000C231DF0761F706C0A8958091600080643E
:10093000809360000E9466008823B1F7F89400E27B
:10094000A89580916000806480936000C02FCF5F85
:10095000E02FF0E0EE0FFF1FEE0FFF1FEE5AFC4FEF
:1009600060817181828193810E9495000C2F0F71AB
:100970008DE18A95F1F700000E945F00882301F362
:10098000789406C0A8958091600080648093600090
:100990000E945F008823B1F7F4C088E291E0B601BD
:1009A000A5010E942503C601B5010E94BC007B0180
:1009B0008C018AE391E00E94D20206C0A895809142
:1009C00060008064809360000E9466008823B1F715
:1009D00091E890938000E9E0E09381001092890013
:1009E000F894C0E0A89580916000806480936000D6
:1009F000C801B7010E949500EC2FF0E0EE58FE4FC1
:100A0000808180938800CF5FCF71F0E2FA95F1F793
:100A10000E945F00882331F3789410928000299817
:100A200006C0A895809160008064809360000E9459
:100A300066008823B1F7A5C08DEDE81688E5F806B5
:100A400083E7080787E0180728F089E491E00E940F
:100A50006A03A1C0570168019EC09DEDE91698E5A3
:100A6000F90693E7090797E0190728F089E491E070
:100A70000E946A0302C01701280187E691E0B201D3
:100A8000A1018DC082017101EA18FB080C091D0942
:100A900017FF14C010950095F094E094E11CF11C30
:100AA000011D111D7A2D6B2D5C2D4D2D6201510103
:100AB0009B01CA01232E322E492E582E82E193E04B
:100AC0000E94F5018AE691E00E94D20282E193E061
:100AD000B601A5010E94960281E191E00E94D20236
:100AE0008EE691E00E94D202B801A7014A0D5B1D7B
:100AF0006C1D7D1D82E193E00E9496023DC0A89589
:100B0000809160008064809360002A9AC0E0D1E008
:100B1000662477244301992797FC9A95892D782D8F
:100B2000672D6A0D7B1D8C1D9D1D6E0C7F1C801E0C
:100B3000911E0E941301E7EEF3E03197F1F700C038
:100B40000000219741F72A9885E393E00E9438013D
:100B50008FE19EE40197F1F700C00000C601B501E6
:100B60000E941301EFE1FEE43197F1F700C00000AD
:100B700085E393E00E94380180914F03882309F4B4
:100B8000BECF10924F0380914F0380934E0380910C
:100B90004E0380934D0384E191E0B601A5010E94CC
:100BA000250324CE85E393E00E942B010895A8E35A
:100BB000B0E0EDEDF5E00C94670C29833A834B83AC
:100BC0005C836D837E838F839887A986BA86CB8664
:100BD000DC86ED86FE860F87188BE984FA840B8508
:100BE0001C852D853E854F85588929803A804B800C
:100BF0005C802DA23EA24FA258A6AD80BE80CF80C1
:100C0000D884211531054105510509F0A6C3AE145C
:100C1000BF04C006D10608F03FC120E0E21620E084
:100C2000F20621E0020720E0120758F43FEFE31636
:100C3000F1040105110509F090F420E030E0A9016C
:100C400017C040E0E41640E0F40640E0040741E04D
:100C5000140750F420E130E040E050E009C028E003
:100C600030E040E050E004C028E130E040E050E0F7
:100C7000D801C701022E04C0B695A7959795879510
:100C80000A94D2F78E5E9D4FDC016C9180E290E079
:100C9000A0E0B0E0821B930BA40BB50B861B91095F
:100CA000A109B1090097A105B105A1F1082E04C061
:100CB000EE0CFF1C001F111F0A94D2F7A60195012C
:100CC000082E04C0220F331F441F551F0A94D2F769
:100CD00060E270E0681B790BADA0BEA0CFA0D8A4E5
:100CE00004C0D694C794B794A7946A95D2F7A22A61
:100CF000B32AC42AD52A2DA03EA04FA058A404C0D0
:100D0000220C331C441C551C8A95D2F72DA23EA2FE
:100D10004FA258A6380188249924A8019701407051
:100D20005070298F3A8F4B8F5C8FC601B501A4019B
:100D300093010E94450C222E532E442E352E6D8F8A
:100D40007E8F8F8F98A3C601B501A40193010E94E5
:100D5000450C822D952DA42DB32D1C012D01C20112
:100D6000B101298D3A8D4B8D5C8D0E940B0C5B017E
:100D70006C014D8D5E8D6F8D78A1DA0199278827E2
:100D80004DA15EA16FA178A59B0144275527822B19
:100D9000932BA42BB52B8A159B05AC05BD05E0F460
:100DA000089421083108410851088E0D9F1DA01F8D
:100DB000B11F8E159F05A007B10770F08A159B051E
:100DC000AC05BD0548F408942108310841085108D4
:100DD0008E0D9F1DA01FB11F9C01AD012A193B095B
:100DE0004C095D0959016A01CA01B901A4019301C5
:100DF0000E94450C29A739A349AB5DA76D8F7E8F53
:100E00008F8F98A3C601B501A40193010E94450CE0
:100E1000A9A4B9A0C9A8DDA4C601B501298D3A8D40
:100E20004B8D5C8D0E940B0C3B014C016D8D7E8DBA
:100E30008F8D98A1AB01332722278DA19EA1AFA151
:100E4000B8A5A070B070282B392B4A2B5B2B261528
:100E5000370548055905C0F40894A108B108C10830
:100E6000D1082E0D3F1D401F511F2E153F05400775
:100E7000510750F0261537054805590528F4089400
:100E8000A108B108C108D1088101FF24EE24EA2895
:100E9000FB280C291D29A1C4E114F1040105110549
:100EA00059F461E070E080E090E0A80197010E94B1
:100EB000450C79018A0110C070E0E71670E0F70672
:100EC00071E0070770E0170758F48FEFE816F10498
:100ED0000105110509F090F420E030E0A90117C0E8
:100EE00090E0E91690E0F90690E0090791E0190713
:100EF00050F420E130E040E050E009C028E030E06C
:100F000040E050E004C028E130E040E050E0D8018B
:100F1000C701022E04C0B695A795979587950A94A8
:100F2000D2F78E5E9D4FDC018C91280F311D411D43
:100F3000511D80E290E0A0E0B0E0821B930BA40B77
:100F4000B50B61F4150126012E183F08400A510A1D
:100F500081E0A82EB12CC12CD12C23C1082E04C0B5
:100F6000EE0CFF1C001F111F0A94D2F71501260179
:100F7000022E04C056944794379427940A94D2F7CB
:100F800035014601082E04C0660C771C881C991C8C
:100F90000A94D2F76D8E7E8E8F8E98A28DA09EA021
:100FA000AFA0B8A404C0B694A794979487942A9548
:100FB000D2F7A5019401AD8CBE8CCF8CD8A0A22A0B
:100FC000B32AC42AD52AAD8EBE8ECF8ED8A22DA12B
:100FD0003EA14FA158A504C0220F331F441F551F27
:100FE0008A95D2F72DA33EA34FA358A73801882492
:100FF0009924B801A7016070707049A75AA76BA720
:101000007CA7C201B101A40193010E94450C298F64
:1010100039AB4DA75DAB69A37AA38BA39CA3C20197
:10102000B101A40193010E94450CA98CB9A8CDA4DB
:10103000DDA8A98EBA8ECB8EDC8EC601B50129A59E
:101040003AA54BA55CA50E940B0C5B016C0129A085
:101050003AA04BA05CA0D101992788272D8C3E8C0B
:101060004F8C58A0920144275527822B932BA42BF9
:10107000B52B8A159B05AC05BD0530F5298D3A8D3C
:101080004B8D5C8D2150304040405040298F3A8F2D
:101090004B8F5C8F8E0D9F1DA01FB11F8E159F055E
:1010A000A007B10788F08A159B05AC05BD0560F463
:1010B0002150304040405040298F3A8F4B8F5C8FF9
:1010C0008E0D9F1DA01FB11FAC01BD014A195B0908
:1010D0006C097D095A016B01CB01BA01A40193018E
:1010E0000E94450C522E432E342E252E69A37AA33E
:1010F0008BA39CA3C601B501A40193010E94450CDA
:10110000652C742C832C922CC401B30129A53AA51B
:101110004BA55CA50E940B0C9B01AC0169A17AA1B7
:101120008BA19CA16B01BB24AA248D8D9E8DAF8DBC
:10113000B8A1A070B070A82AB92ACA2ADB2AA216C0
:10114000B306C406D506E0F4089461087108810866
:101150009108AE0CBF1CC01ED11EAE14BF04C00649
:10116000D10670F0A216B306C406D50648F408945A
:101170006108710881089108AE0CBF1CC01ED11E09
:1011800015012601221A330A440A550A898D9A8DBF
:10119000AB8DBC8D6C01BB24AA24A628B728C82817
:1011A000D9283801882499246D8E7E8E8F8E98A23E
:1011B000A80197014070507029A73AA74BA75CA7D8
:1011C000C201B101A40193010E94450C922E832E0D
:1011D000742E652E69A37AA38BA39CA3C201B101CF
:1011E0002D8D3E8D4F8D58A10E94450C892D982D37
:1011F000A72DB62D898F9A8FAB8FBC8FBC01CD01E7
:1012000029A53AA54BA55CA50E940B0C3B014C01FE
:1012100049A15AA16BA17CA1DA01992788272DA0A9
:101220003EA04FA058A4920144275527822B932B10
:10123000A42BB52B86159705A805B90530F5298D82
:101240003A8D4B8D5C8D2150304040405040298F6D
:101250003A8F4B8F5C8F8E0D9F1DA01FB11F8E1577
:101260009F05A007B10788F086159705A805B90561
:1012700060F42150304040405040298F3A8F4B8FCE
:101280005C8F8E0D9F1DA01FB11FAC01BD014619C3
:101290005709680979093A014B01CB01BA012D8D33
:1012A0003E8D4F8D58A10E94450C522E432E342E58
:1012B000252E69A37AA38BA39CA3C401B3012D8D12
:1012C0003E8D4F8D58A10E94450C652C742C832CAB
:1012D000922CC401B30129A53AA54BA55CA50E9497
:1012E0000B0C1B012C0169A17AA18BA19CA1AB0164
:1012F000332722278DA19EA1AFA1B8A5A070B07001
:10130000282B392B4A2B5B2B221533054405550519
:10131000C0F4089461087108810891082E0D3F1DE2
:10132000401F511F2E153F054007510750F0221551
:1013300033054405550528F40894610871088108AF
:101340009108898D9A8DAB8DBC8D8C01FF24EE2484
:10135000E628F7280829192943C2A216B306C406AD
:10136000D50608F42AC2203090E0390791E04907F9
:1013700090E0590750F42F3F31054105510509F020
:1013800090F466247724430119C02030A0E03A0786
:10139000A0E04A07A1E05A0760F490E1692E712CA1
:1013A000812C912C0BC088E0682E712C812C912C03
:1013B00005C0B8E16B2E712C812C912CDA01C9018A
:1013C000062C04C0B695A795979587950A94D2F7F1
:1013D0008E5E9D4FFC018081680E711C811C911CEA
:1013E00080E290E0A0E0B0E086199709A809B90969
:1013F00089F42A153B054C055D0508F4E5C12DA0CF
:101400003EA04FA058A42E143F044006510608F0F9
:10141000DBC1D3C189A719012A0104C0220C331CE6
:10142000441C551C8A95D2F7D801C701062C04C06C
:10143000B695A795979587950A94D2F7282A392AC1
:101440004A2A5B2AA801970109A404C0220F331F6E
:10145000441F551F0A94D2F729A33AA34BA35CA3B8
:1014600086017501062C04C016950795F794E7943C
:101470000A94D2F7B601A50109A404C0440F551F70
:10148000661F771F0A94D2F74D8F5E8F6F8F78A3F8
:101490006DA17EA18FA198A504C09695879577959B
:1014A00067956A94D2F73B014C018D8D9E8DAF8D6F
:1014B000B8A186299729A829B9298D8F9E8FAF8F2A
:1014C000B8A35201CC24DD24A201910140705070D8
:1014D00029AB3AAB4BAB5CABC801B701A601950198
:1014E0000E94450C622E932E842E752E6DA77EA72A
:1014F0008FA798ABC801B701A60195010E94450CC2
:10150000E62CF92C082D172DE98EFA8E0B8F1C8FE7
:10151000C801B70129A93AA94BA95CA90E940B0CE3
:101520006DA47EA48FA498A88301FF24EE246D8C63
:101530007E8C8F8C98A0940144275527E22AF32AA9
:10154000042B152BE616F7060807190730F5298D29
:101550003A8D4B8D5C8D2150304040405040298F5A
:101560003A8F4B8F5C8FE20CF31C041D151DE214A7
:10157000F3040405150588F0E616F70608071907B1
:1015800060F42150304040405040298F3A8F4B8FBB
:101590005C8FE20CF31C041D151DE61AF70A080BFC
:1015A000190BC801B701A60195010E94450C2DAB8E
:1015B0003EAB4FAB58AF6DA77EA78FA798ABC801C6
:1015C000B701A60195010E94450C6DA87EA88FA8C1
:1015D00098ACC401B30129A93AA94BA95CA90E94FE
:1015E0000B0C9B01AC01ADA4BEA4CFA4D8A8D5011F
:1015F00099278827AD8CBE8CCF8CD8A06FEFE62EB4
:101600006FEFF62E012D112DAE20BF20C022D1226A
:101610008A299B29AC29BD2982179307A407B507FE
:10162000E0F408946108710881089108820D931D07
:10163000A41DB51D82159305A405B50570F082178C
:101640009307A407B50748F4089461087108810856
:101650009108820D931DA41DB51D1C012D01221A98
:10166000330A440A550A2D8E3E8E4F8E58A2A98CFD
:10167000BA8CCB8CDC8C8501FF24EE24E628F7287D
:1016800008291929AFEFAA2EAFEFBA2EC12CD12C01
:10169000AE20BF20C022D12218014424552469A0C5
:1016A0007AA08BA09CA02FEF3FEF40E050E0622299
:1016B00073228422952269A17AA18BA19CA1AC01FD
:1016C00066277727498F5A8F6B8F7C8FC601B501AC
:1016D000A40193010E940B0C69A37AA38BA39CA382
:1016E000C601B501298D3A8D4B8D5C8D0E940B0C86
:1016F0005B016C01C201B101A40193010E940B0CBA
:101700003B014C01C201B101298D3A8D4B8D5C8D9D
:101710000E940B0C9B01AC01A60CB71CC81CD91C69
:1017200029A03AA04BA05CA0C201AA27BB27A80E03
:10173000B91ECA1EDB1EA614B704C804D90420F4BF
:10174000205030404F4F5F4FC601AA27BB27820F62
:10175000931FA41FB51F4D8C5E8C6F8C78A048160C
:1017600059066A067B0618F184159505A605B70586
:10177000A1F56501BB24AA2489A19AA1ABA1BCA1B2
:10178000A070B070A80EB91ECA1EDB1E8DA19EA14E
:10179000AFA1B8A509A404C0880F991FAA1FBB1F39
:1017A0000A94D2F78A159B05AC05BD05B0F40894E0
:1017B000E108F1080109110910C0AA24BB24650140
:1017C000EE24FF2487010CC0AA24BB24650181E01C
:1017D000E82EF12C012D112D03C0AA24BB24650194
:1017E000FE01719688E0DF011D928A95E9F7E98A8A
:1017F000FA8A0B8B1C8BAD8ABE8ACF8AD88E2E2D8F
:101800003A894B895C896A2D7E898F89988DE89603
:10181000E2E10C94830C629FD001739FF001829FE0
:10182000E00DF11D649FE00DF11D929FF00D839F6F
:10183000F00D749FF00D659FF00D9927729FB00D0C
:10184000E11DF91F639FB00DE11DF91FBD01CF011F
:101850001124089597FB092E05260ED057FD04D0BC
:1018600014D00AD0001C38F450954095309521953D
:101870003F4F4F4F5F4F0895F6F7909580957095C5
:1018800061957F4F8F4F9F4F0895A1E21A2EAA1B9B
:10189000BB1BFD010DC0AA1FBB1FEE1FFF1FA21720
:1018A000B307E407F50720F0A21BB30BE40BF50B1D
:1018B000661F771F881F991F1A9469F760957095A6
:1018C000809590959B01AC01BD01CF0108952F92A9
:1018D0003F924F925F926F927F928F929F92AF92C0
:1018E000BF92CF92DF92EF92FF920F931F93CF930D
:1018F000DF93CDB7DEB7CA1BDB0B0FB6F894DEBFA4
:101900000FBECDBF09942A88398848885F846E84C9
:101910007D848C849B84AA84B984C884DF80EE8013
:10192000FD800C811B81AA81B981CE0FD11D0FB61C
:10193000F894DEBF0FBECDBFED010895EE0FFF1F7F
:101940000590F491E02D0994DC0101C06D934150A4
:0A1950005040E0F70895F894FFCF2F
:10195A004133323142363534433938374423302A19
:10196A00000D0A00464100200800556E61626C6550
:10197A00203C37354B487A004643004D6F64756CFE
:10198A006174696F6E3A20464D004D6F64756C61E3
:10199A0074696F6E3A20414D00556E61626C652C18
:1019AA00206D7573742062650D0A302E2E31323423
:1019BA003939393930300046420046413D00464205
:1019CA003D008099B1C7DAEAF5FDFFFDF5EADAC70D
:1019DA00B19980674F3926160B0301030B16263976
:1019EA004F6700000000273900001D700000C3A2E5
:1019FA00000029CF000098F30000AA0E0100561F2C
:101A0A000100F8240100561F0100AA0E010098F3F4
:101A1A00000029CF0000C3A200001D700000273972
:101A2A00000000000000D9C6FFFFE38FFFFF3D5D05
:101A3A00FFFFD730FFFF680CFFFF56F1FEFFAAE059
:101A4A00FEFF08DBFEFFAAE0FEFF56F1FEFF680C70
:101A5A00FFFFD730FFFF3D5DFFFFE38FFFFFD9C6D2
:101A6A00FFFF000102020303030304040404040445
:101A7A00040405050505050505050505050505050E
:101A8A0005050606060606060606060606060606EE
:101A9A0006060606060606060606060606060606DC
:101AAA0006060707070707070707070707070707BE
:101ABA0007070707070707070707070707070707AC
:101ACA00070707070707070707070707070707079C
:101ADA00070707070707070707070707070707078C
:101AEA00070708080808080808080808080808086E
:101AFA00080808080808080808080808080808085C
:101B0A00080808080808080808080808080808084B
:101B1A00080808080808080808080808080808083B
:101B2A00080808080808080808080808080808082B
:101B3A00080808080808080808080808080808081B
:101B4A00080808080808080808080808080808080B
:101B5A0008080808080808080808080808080808FB
:021B6A00080869
:00000001FF
