:100000000C9435000C945D000C945D000C945D0024
:100010000C945D000C945D000C9475010C945D00D3
:100020000C945D000C945D000C945D000C945D00DC
:100030000C945D000C945D000C945D000C945D00CC
:100040000C9467010C945D000C945D000C945D00B1
:100050000C945D000C945D000C945D000C945D00AC
:100060000C945D000C945D00950511241FBECFEF2C
:10007000D8E0DEBFCDBF12E0A0E0B1E0EAEDFCE0E9
:1000800002C005900D92A231B107D9F722E0A2E19A
:10009000B2E001C01D92A33DB207E1F710E0C5E355
:1000A000D0E004C02197FE010E944F06C433D1075F
:1000B000C9F70E9446030C946B060C9400008BB1A8
:1000C0008F708BB985E08A95F1F7000096B19C732B
:1000D00081E09C3309F480E008952C9A9BB19F70D5
:1000E000282F207F922B9BB92C982C9A9BB19F7024
:1000F00040E1849F90011124892F822B8BB92C9889
:100100002C9A85E88A95F1F700008BB18F708BB936
:1001100008952B980C946D008BB9409A40980895DF
:100120000F931F93CF93DF93EB01182F092F28987C
:1001300080E00E948C00802F0E948C00812F0E9402
:100140008C008D2F0E948C008C2F0E948C00289A8E
:100150001BB8DF91CF911F910F910895AF92BF927D
:10016000CF92DF92EF92FF920F931F93CF93DF9383
:10017000CDB7DEB728970FB6F894DEBF0FBECDBF60
:10018000613A2CEA720729EB820723E0920760F0BC
:1001900000E419E523E737E068017901C61AD70AB8
:1001A000E80AF90AC701B6016D837E838F839887B9
:1001B00019821A821B821C823A814B815C817E816A
:1001C00080E4A82E99E5B92E23E7C22EE7E0DE2EC3
:1001D000E12CF12C00E010E020E08F8198850E9456
:1001E000D005B901CA0128960FB6F894DEBF0FBE3C
:1001F000CDBFDF91CF911F910F91FF90EF90DF90D6
:10020000CF90BF90AF9008950E94AE000C949000E4
:100210001F93CF93DF93EC01162F89A1823010F04A
:1002200081E089A388A1803158F089A18823F9F061
:10023000CE010E94FF0149A160E0CE010E9465024B
:1002400089A120E1829FC001112428A18C0F9D1F4C
:10025000820F911DFC0110832B9A812F0E946D004B
:1002600088A18F5F88A3DF91CF911F91089581E0CE
:1002700089A3E1CFCF92DF92EF92FF92CF93DF93EA
:10028000EC016A017B0180EB92E00E944202BE0118
:1002900080EB92E00E94F0026DE380EB92E00E941E
:1002A0000801B701A60180EB92E00E94B50260EA66
:1002B00071E080EB92E00E94F002C701B601DF918D
:1002C000CF91FF90EF90DF90CF900C9404011F929C
:1002D0000F920FB60F9211248F9380EC86BD8F91F1
:1002E0000F900FBE0F901F9018951F920F920FB690
:1002F0000F9211240F900FBE0F901F901895CF935F
:10030000DF93EC0180EB92E00E9442021092AD027A
:100310001092AC021092AB02BE0180EB92E00E9400
:10032000F002C7E48091AD02811108C0A895C09386
:10033000600083E992E00E94A701F4CF1092AD0221
:100340001092AC021092AB02DF91CF910895CF933F
:10035000DF93FC01DC0130E020E040E150E09BB1A4
:10036000BA01022E01C0660F0A94EAF7862F809523
:1003700089238BB985E08A95F1F7000086B18695CF
:1003800086959BB1962B9BB9BD016C5F7F4F9C916D
:10039000990FC82FC1709C2B9D9386956A177B0778
:1003A000B1F7DB012F5F3F4F24303105C1F69F01CC
:1003B000205F3F4FEF01AF014095509589918F71BC
:1003C0008031B9F4828D8830A0F4A38DB48DAC0F48
:1003D000BD1FA40FB51F8C91A08DAE0FBF2FB11DF7
:1003E00050968C93808D8F5F8770808F828D8F5F0A
:1003F000828F2C173D0711F7DF91CF910895EF926F
:10040000FF920F931F93CF93DF938C01EC016096C3
:1004100080E1FE01D80101900D928A95E1F740E15B
:1004200050E060E270E0CE010E94640680E80E9425
:1004300089007801F70181917F012B9A0E946D005C
:10044000CE15DF05B9F780EC0E9489007801F0E253
:10045000EF0EF11C89912B9A0E946D00CE15DF05DD
:10046000C9F7F80181A18295880F880F807C90A13F
:10047000890F8068DF91CF911F910F91FF90EF90CE
:100480000C948900CF93DF93EC018CE00E948900EB
:1004900081E00E9489008FE99FE00197F1F700C099
:1004A000000019A218A240E250E060E270E0CE0124
:1004B0000E9464068AA1882329F08FE0DF91CF9102
:1004C0000C948900DF91CF910895FC0160A341A3B2
:1004D0004295440F440F407C842F860F80680C9413
:1004E0008900CF93DF93EC016A3091F148F46830D2
:1004F00079F0693021F1CE01DF91CF910C940801A0
:100500006C3011F178F06D30B1F749A160E005C0B1
:1005100068A1662339F1615049A1CE01DF91CF91E5
:100520000C94650219A218A282E00E9489008AA197
:100530008823C1F08FE0DF91CF910C94890068A1EE
:10054000613180F46F5FE8CFDF91CF910C9442026C
:1005500049A1423020F0DF91CF910C94FF014F5F11
:1005600068A1DBCFDF91CF910895CF92DF92EF9218
:10057000FF92CF93DF93EC016A017B01F7FE0BC082
:100580006DE20E940801F094E094D094C094C11CE4
:10059000D11CE11CF11C8AE0C816D104E104F1046D
:1005A0006CF0C701B6012AE030E040E050E00E9464
:1005B000A405BA01A901CE010E94B502C701B60186
:1005C0002AE030E040E050E00E94A405605DCE01EA
:1005D000DF91CF91FF90EF90DF90CF900C9471025C
:1005E0000F931F93CF93DF938C01EB0169916623E7
:1005F00021F0C8010E947102F9CFDF91CF911F91C4
:100600000F910895CF93DF93EC012B9A2C9A8BB125
:10061000806F8BB98FE39CE90197F1F700C0000070
:100620008BB18F7080638BB92B982C988FE295E7F4
:100630000197F1F700C000002C9A2C988FE097E208
:100640000197F1F700C000002C9A2C988FE097E2F8
:100650000197F1F700C000002C9A8BB18F70806277
:100660008BB92C988FE097E20197F1F700C000005A
:100670002C9A88E20E94890086E00E948900CE01BF
:100680000E9442021AA2DF91CF910895CF93DF9387
:1006900000D000D000D0CDB7DEB714BE15BE83E0C9
:1006A00087B98FEF8AB98FE384B988B91BB815B8B9
:1006B00083B7817F83BF83B7816083BF88E18093E5
:1006C00060008FE48093600085E085BD21E0209389
:1006D0006E0080EC86BD80EB92E00E94020331E068
:1006E0003093D2028FE00E9489007894419A8FEC77
:1006F00097E00197F1F700C00000419840982898D2
:1007000040E452E46FE070E083EA91E00E943A0135
:1007100020E4822E24E5922E29E8A22EB12C30E48A
:10072000C32E32E4D32E3FE0E32EF12C412C512C8A
:10073000320117E441E8342E09E08895A89510931A
:10074000600083E992E00E94A7018091AD028823B6
:10075000A1F38091AD02E0E0882389F0E091AC0242
:10076000F0E0ED56FD4FE0898091AC028F5F87701D
:100770008093AC028091AD0281508093AD0280EDF8
:100780008E0F8A30E0F4AAE0B0E0A30192010E944B
:10079000C305E053FF0B2F01FF0F66087708460ED5
:1007A000571E681E791E6DE080EB92E00E94710278
:1007B000B301A20180EB92E00E94B502BECFE1340A
:1007C00009F4E4C008F5E33209F447C0EA3209F05D
:1007D000B4CFB701A60187EB91E00E943A01C701AF
:1007E000B6010E94AE002B013C0169EC71E080EB88
:1007F00092E00E94F0020E945F00882309F497C0F3
:10080000A89510936000F7CFE33409F4F2C008F420
:10081000D8C0E43409F091CFC301B2012AE030E03E
:1008200040E050E00E94A40529013A016DE080EB10
:1008300092E00E947102411451046104710431F08C
:10084000B301A20180EB92E00E94B50266EA71E07A
:1008500080EB92E00E94F00270CF98EFC91694E20C
:10086000D90691E0E906F1046CF489EA91E00E946E
:100870007F0186B18C738C3309F44AC1A89510931B
:100880006000F7CFB701A60187EB91E00E943A0123
:100890006AEB71E080EB92E00E94F002E0E0F1E0B0
:1008A000FA83E98393E1692E92E0792EE981FA8156
:1008B0006191719181919191FA83E9836C0D7D1D14
:1008C0008E1D9F1D0E94AE00F30161937193819371
:1008D00091933F0129813A812058314039F70E9494
:1008E0005F00882321F0A89510936000F8CFF8945A
:1008F000E0E2A8951093600051E05E0F598384E018
:10090000E89FF0011124ED5EFD4F608171818281CD
:1009100093810E949000E981EF719DE19A95F1F732
:10092000000086B18C738C3321F37894A2CF30927F
:1009300080000093810010928900F8941982A89594
:1009400010936000C301B2010E94900089818F5F03
:10095000F981EF2FF0E0E058FE4F908190938800EE
:100960008F71898320E22A95F1F786B18C738C33DD
:1009700031F378941092800029980E945F008823B8
:1009800009F4C6C0A89510936000F7CF3DED43165B
:1009900038E5530633E7630637E0730630F088ED39
:1009A00091E00E947F0126013701B301A20183EA91
:1009B00091E00E943A0173016201412C512C3201F5
:1009C000BCCE4DED441648E5540643E7640647E0C7
:1009D000740630F088ED91E00E947F01240135011A
:1009E000B301A20186EF91E00E943A015301420156
:1009F000E4CF240135014C185D086E087F0877FEAE
:100A000012C07094609450944094411C511C611C1D
:100A1000711C3C2D2D2D9E2D8F2D75016401832E73
:100A2000922EA92EB82E80EB92E00E94420269EF2E
:100A300071E080EB92E00E94F002B701A60180EB2A
:100A400092E00E94B50260EA71E080EB92E00E94C1
:100A5000F0026DEF71E080EB92E00E94F002B701CE
:100A6000A601440D551D661D771D80EB92E00E9486
:100A7000B5028091AD0281114BC0A8951093600022
:100A80002A9A80E091E09E838D8319821A821B82CC
:100A90001C8229813A814B815C81992757FD9A9567
:100AA000852F742F632F6C0D7D1D8E1D9F1D240DB2
:100AB000351D461D571D29833A834B835C830E9455
:100AC000040187EE93E00197F1F700C00000ED818B
:100AD000FE813197FE83ED83EF2BD9F62A9883E9C7
:100AE00092E00E94A7018FE19EE40197F1F700C018
:100AF0000000C701B6010E940401EFE1FEE4319756
:100B0000F1F700C0000083E992E00E94A701B1CF95
:100B10001092AD021092AC021092AB02B701A60186
:100B200083EA91E00E943A0148CFE3E9F2E0108EB7
:100B3000118E128E81E092E0948F838F80E1DF012D
:100B40001D928A95E9F70895052E97FB1EF40094EF
:100B50000E94BB0557FD07D00E942D0607FC03D05D
:100B60004EF40C94BB0550954095309521953F4F20
:100B70004F4F5F4F089590958095709561957F4F89
:100B80008F4F9F4F08950E945506A59F900DB49FCB
:100B9000900DA49F800D911D11240895689401C0AB
:100BA000E8948F929F92CF93DF930E94DC05DF91B0
:100BB000CF919F908F90089588249924F401E401A7
:100BC000B0E49F93AA279A158B049C04ED05FE05BB
:100BD000CF05D007A10798F4AD2FDC2FCF2FFE2F24
:100BE000E92D982C892E982F872F762F652F542F3B
:100BF000432F322F2227B85031F7BF9127C01B2E29
:100C0000BF91BB27220F331F441F551F661F771F3D
:100C1000881F991F881C991CEE1FFF1FCC1FDD1F0A
:100C2000AA1FBB1F8A149B04EC05FD05CE05DF053A
:100C3000A007B10748F08A189B08EC09FD09CE0906
:100C4000DF09A00BB10B21601A94E1F62EF4940198
:100C5000AF01BE01CD01000C0895A1E21A2EAA1B1E
:100C6000BB1BFD010DC0AA1FBB1FEE1FFF1FA2175C
:100C7000B307E407F50720F0A21BB30BE40BF50B59
:100C8000661F771F881F991F1A9469F760957095E2
:100C9000809590959B01AC01BD01CF010895EE0FA9
:100CA000FF1F0590F491E02D0994A29FB001B39F1E
:100CB000C001A39F700D811D1124911DB29F700D65
:100CC000811D1124911D0895DC0101C06D934150D7
:0A0CD0005040E0F70895F894FFCFBC
:100CDA0000000000273900001D700000C3A20000B8
:100CEA0029CF000098F30000AA0E0100561F010048
:100CFA00F8240100561F0100AA0E010098F3000013
:100D0A0029CF0000C3A200001D700000273900008F
:100D1A0000000000D9C6FFFFE38FFFFF3D5DFFFF24
:100D2A00D730FFFF680CFFFF56F1FEFFAAE0FEFF77
:100D3A0008DBFEFFAAE0FEFF56F1FEFF680CFFFF8C
:100D4A00D730FFFF3D5DFFFFE38FFFFFD9C6FFFFEF
:100D5A008099B1C7DAEAF5FDFFFDF5EADAC7B1997C
:100D6A0080674F3926160B0301030B1626394F6786
:100D7A000D0A00464100200800556E61626C65202C
:100D8A003C37354B487A004643004D6F64756C61B9
:100D9A0074696F6E3A20464D004D6F64756C6174CC
:100DAA00696F6E3A20414D00556E61626C652C2068
:100DBA006D7573742062650D0A302E2E3132343906
:100DCA0039393930300046420046413D0046423DFD
:100DDA0000413332314236353443393837442330CF
:020DEA002A00DD
:00000001FF
